{
  "contractName": "CloutTypedMessages",
  "abi": [
    {
      "inputs": [
        {
          "internalType": "string",
          "name": "name",
          "type": "string"
        },
        {
          "internalType": "string",
          "name": "description",
          "type": "string"
        },
        {
          "internalType": "address",
          "name": "owner",
          "type": "address"
        }
      ],
      "stateMutability": "nonpayable",
      "type": "constructor"
    },
    {
      "inputs": [],
      "name": "getInfo",
      "outputs": [
        {
          "internalType": "string",
          "name": "",
          "type": "string"
        }
      ],
      "stateMutability": "view",
      "type": "function"
    },
    {
      "inputs": [
        {
          "internalType": "string",
          "name": "description",
          "type": "string"
        }
      ],
      "name": "setDescription",
      "outputs": [],
      "stateMutability": "nonpayable",
      "type": "function"
    }
  ],
  "bytecode": "0x60806040523480156200001157600080fd5b506040516200099d3803806200099d8339818101604052810190620000379190620001eb565b806000806101000a81548173ffffffffffffffffffffffffffffffffffffffff021916908373ffffffffffffffffffffffffffffffffffffffff16021790555082600190805190602001906200008f929190620000b2565b508160029080519060200190620000a8929190620000b2565b50505050620003f2565b828054620000c09062000344565b90600052602060002090601f016020900481019282620000e4576000855562000130565b82601f10620000ff57805160ff191683800117855562000130565b8280016001018555821562000130579182015b828111156200012f57825182559160200191906001019062000112565b5b5090506200013f919062000143565b5090565b5b808211156200015e57600081600090555060010162000144565b5090565b6000620001796200017384620002a7565b62000273565b9050828152602081018484840111156200019257600080fd5b6200019f8482856200030e565b509392505050565b600081519050620001b881620003d8565b92915050565b600082601f830112620001d057600080fd5b8151620001e284826020860162000162565b91505092915050565b6000806000606084860312156200020157600080fd5b600084015167ffffffffffffffff8111156200021c57600080fd5b6200022a86828701620001be565b935050602084015167ffffffffffffffff8111156200024857600080fd5b6200025686828701620001be565b92505060406200026986828701620001a7565b9150509250925092565b6000604051905081810181811067ffffffffffffffff821117156200029d576200029c620003a9565b5b8060405250919050565b600067ffffffffffffffff821115620002c557620002c4620003a9565b5b601f19601f8301169050602081019050919050565b6000620002e782620002ee565b9050919050565b600073ffffffffffffffffffffffffffffffffffffffff82169050919050565b60005b838110156200032e57808201518184015260208101905062000311565b838111156200033e576000848401525b50505050565b600060028204905060018216806200035d57607f821691505b602082108114156200037457620003736200037a565b5b50919050565b7f4e487b7100000000000000000000000000000000000000000000000000000000600052602260045260246000fd5b7f4e487b7100000000000000000000000000000000000000000000000000000000600052604160045260246000fd5b620003e381620002da565b8114620003ef57600080fd5b50565b61059b80620004026000396000f3fe608060405234801561001057600080fd5b50600436106100365760003560e01c80635a9b0b891461003b57806390c3f38f14610059575b600080fd5b610043610075565b60405161005091906103c3565b60405180910390f35b610073600480360381019061006e91906101c5565b6100a0565b005b60606001600260405160200161008c92919061037e565b604051602081830303815290604052905090565b80600290805190602001906100b69291906100ba565b5050565b8280546100c6906104c4565b90600052602060002090601f0160209004810192826100e8576000855561012f565b82601f1061010157805160ff191683800117855561012f565b8280016001018555821561012f579182015b8281111561012e578251825591602001919060010190610113565b5b50905061013c9190610140565b5090565b5b80821115610159576000816000905550600101610141565b5090565b600061017061016b84610416565b6103e5565b90508281526020810184848401111561018857600080fd5b610193848285610482565b509392505050565b600082601f8301126101ac57600080fd5b81356101bc84826020860161015d565b91505092915050565b6000602082840312156101d757600080fd5b600082013567ffffffffffffffff8111156101f157600080fd5b6101fd8482850161019b565b91505092915050565b60006102118261045b565b61021b8185610466565b935061022b818560208601610491565b61023481610554565b840191505092915050565b6000815461024c816104c4565b6102568186610477565b945060018216600081146102715760018114610282576102b5565b60ff198316865281860193506102b5565b61028b85610446565b60005b838110156102ad5781548189015260018201915060208101905061028e565b838801955050505b50505092915050565b60006102cb600983610477565b91507f7b226e616d65223a2200000000000000000000000000000000000000000000006000830152600982019050919050565b600061030b601183610477565b91507f222c226465736372697074696f6e223a220000000000000000000000000000006000830152601182019050919050565b600061034b600283610477565b91507f227d0000000000000000000000000000000000000000000000000000000000006000830152600282019050919050565b6000610389826102be565b9150610395828561023f565b91506103a0826102fe565b91506103ac828461023f565b91506103b78261033e565b91508190509392505050565b600060208201905081810360008301526103dd8184610206565b905092915050565b6000604051905081810181811067ffffffffffffffff8211171561040c5761040b610525565b5b8060405250919050565b600067ffffffffffffffff82111561043157610430610525565b5b601f19601f8301169050602081019050919050565b60008190508160005260206000209050919050565b600081519050919050565b600082825260208201905092915050565b600081905092915050565b82818337600083830152505050565b60005b838110156104af578082015181840152602081019050610494565b838111156104be576000848401525b50505050565b600060028204905060018216806104dc57607f821691505b602082108114156104f0576104ef6104f6565b5b50919050565b7f4e487b7100000000000000000000000000000000000000000000000000000000600052602260045260246000fd5b7f4e487b7100000000000000000000000000000000000000000000000000000000600052604160045260246000fd5b6000601f19601f830116905091905056fea2646970667358221220f6673f2f52a693f14049c3149a5750f4bbbacb73508d06b9f62debfb2997c0ba64736f6c63430008000033",
  "immutableReferences": {},
  "source": "// contracts/CloutTypedMessages.sol\r\n// SPDX-License-Identifier: MIT\r\npragma solidity ^0.8.0;\r\n\r\n/**\r\n * Netclout can accept arbitrary message types\r\n */\r\ncontract CloutTypedMessages {\r\n\t//Owner\r\n\taddress private _owner;\r\n\t\r\n\t//Type name \r\n\tstring private _name;\r\n\t\r\n\t//Type description\r\n\tstring private _description;\r\n\t\r\n\r\n    constructor(string memory name, string memory description, address owner) \r\n\t{\r\n\t\t_owner = owner;\r\n\t\t_name = name;\r\n\t\t_description = description;\r\n    }\r\n\t\r\n\t\r\n\t/////////////////////\r\n\t\r\n\t\r\n\t\r\n\t\r\n\t//////////////////////\r\n\t/**\r\n     * @dev Returns the type information as JSON.\r\n     */\r\n    function getInfo() \r\n\t\tpublic view \r\n\t\treturns (string memory) \r\n\t{\r\n        return string(abi.encodePacked(\"{\\\"name\\\":\\\"\", _name, \"\\\",\\\"description\\\":\\\"\", _description, \"\\\"}\") );\r\n    }\r\n\t\t\r\n\t\t\r\n\t/**\r\n     * @dev Set the profile information.\r\n     */\r\n    function setDescription(string memory description) \r\n\t\tpublic \r\n\t{\r\n\t\t_description = description;\r\n    }\r\n\t\r\n\r\n}",
  "sourcePath": "C:/data/projects/the social cloutwork/proofOfConcept/contracts/contracts/CloutTypedMessages.sol",
  "compiler": {
    "name": "solc",
    "version": "0.8.0+commit.c7dfd78e.Emscripten.clang"
  },
  "schemaVersion": "3.4.1",
  "updatedAt": "2021-06-28T06:02:56.288Z",
  "devdoc": {
    "kind": "dev",
    "methods": {
      "getInfo()": {
        "details": "Returns the type information as JSON."
      },
      "setDescription(string)": {
        "details": "Set the profile information."
      }
    },
    "version": 1
  },
  "userdoc": {
    "kind": "user",
    "methods": {},
    "notice": "Netclout can accept arbitrary message types",
    "version": 1
  }
}