{
  "contractName": "CloutProfileFactory",
  "abi": [
    {
      "anonymous": false,
      "inputs": [
        {
          "indexed": false,
          "internalType": "address payable",
          "name": "profileAddress",
          "type": "address"
        }
      ],
      "name": "ProfileCreated",
      "type": "event"
    },
    {
      "inputs": [
        {
          "internalType": "string",
          "name": "",
          "type": "string"
        }
      ],
      "name": "profiles",
      "outputs": [
        {
          "internalType": "address payable",
          "name": "",
          "type": "address"
        }
      ],
      "stateMutability": "view",
      "type": "function",
      "constant": true
    },
    {
      "inputs": [
        {
          "internalType": "string",
          "name": "name",
          "type": "string"
        }
      ],
      "name": "deployNewProfile",
      "outputs": [
        {
          "internalType": "address",
          "name": "profileAddress",
          "type": "address"
        }
      ],
      "stateMutability": "nonpayable",
      "type": "function"
    },
    {
      "inputs": [
        {
          "internalType": "string",
          "name": "name",
          "type": "string"
        }
      ],
      "name": "getProfile",
      "outputs": [
        {
          "internalType": "address payable",
          "name": "profileAddress",
          "type": "address"
        }
      ],
      "stateMutability": "view",
      "type": "function",
      "constant": true
    },
    {
      "inputs": [
        {
          "internalType": "string",
          "name": "oldName",
          "type": "string"
        },
        {
          "internalType": "string",
          "name": "newName",
          "type": "string"
        }
      ],
      "name": "changeProfileName",
      "outputs": [
        {
          "internalType": "string",
          "name": "name",
          "type": "string"
        }
      ],
      "stateMutability": "nonpayable",
      "type": "function"
    }
  ],
  "bytecode": "0x608060405234801561001057600080fd5b50613965806100206000396000f3fe60806040523480156200001157600080fd5b5060043610620000525760003560e01c80630de986931462000057578063bb006d36146200008d578063c3eadf9514620000c3578063cba521e214620000f9575b600080fd5b6200007560048036038101906200006f91906200060b565b6200012f565b604051620000849190620007d5565b60405180910390f35b620000ab6004803603810190620000a5919062000650565b62000178565b604051620000ba9190620007f2565b60405180910390f35b620000e16004803603810190620000db91906200060b565b620003e7565b604051620000f09190620007b8565b60405180910390f35b6200011760048036038101906200011191906200060b565b62000542565b604051620001269190620007d5565b60405180910390f35b600080826040516200014291906200079f565b908152602001604051809103902060009054906101000a900473ffffffffffffffffffffffffffffffffffffffff169050919050565b6060600073ffffffffffffffffffffffffffffffffffffffff16600083604051620001a491906200079f565b908152602001604051809103902060009054906101000a900473ffffffffffffffffffffffffffffffffffffffff1673ffffffffffffffffffffffffffffffffffffffff16146200022c576040517f08c379a000000000000000000000000000000000000000000000000000000000815260040162000223906200084a565b60405180910390fd5b6000836040516200023e91906200079f565b908152602001604051809103902060009054906101000a900473ffffffffffffffffffffffffffffffffffffffff166000836040516200027f91906200079f565b908152602001604051809103902060006101000a81548173ffffffffffffffffffffffffffffffffffffffff021916908373ffffffffffffffffffffffffffffffffffffffff16021790555060008084604051620002de91906200079f565b908152602001604051809103902060006101000a81548173ffffffffffffffffffffffffffffffffffffffff021916908373ffffffffffffffffffffffffffffffffffffffff160217905550600080836040516200033d91906200079f565b908152602001604051809103902060009054906101000a900473ffffffffffffffffffffffffffffffffffffffff1690508073ffffffffffffffffffffffffffffffffffffffff166372c39161846040518263ffffffff1660e01b8152600401620003a99190620007f2565b600060405180830381600087803b158015620003c457600080fd5b505af1158015620003d9573d6000803e3d6000fd5b505050508291505092915050565b60008073ffffffffffffffffffffffffffffffffffffffff166000836040516200041291906200079f565b908152602001604051809103902060009054906101000a900473ffffffffffffffffffffffffffffffffffffffff1673ffffffffffffffffffffffffffffffffffffffff16146200046257600080fd5b6000823360405162000474906200058b565b6200048192919062000816565b604051809103906000f0801580156200049e573d6000803e3d6000fd5b50905080600084604051620004b491906200079f565b908152602001604051809103902060006101000a81548173ffffffffffffffffffffffffffffffffffffffff021916908373ffffffffffffffffffffffffffffffffffffffff1602179055507ff10ec97e920cde75887622583772c637595a40b1f7777c18e51ea36cd127475c81604051620005319190620007d5565b60405180910390a180915050919050565b6000818051602081018201805184825260208301602085012081835280955050505050506000915054906101000a900473ffffffffffffffffffffffffffffffffffffffff1681565b612f6880620009c883390190565b6000620005b0620005aa84620008a0565b6200086c565b905082815260208101848484011115620005c957600080fd5b620005d684828562000942565b509392505050565b600082601f830112620005f057600080fd5b81356200060284826020860162000599565b91505092915050565b6000602082840312156200061e57600080fd5b600082013567ffffffffffffffff8111156200063957600080fd5b6200064784828501620005de565b91505092915050565b600080604083850312156200066457600080fd5b600083013567ffffffffffffffff8111156200067f57600080fd5b6200068d85828601620005de565b925050602083013567ffffffffffffffff811115620006ab57600080fd5b620006b985828601620005de565b9150509250929050565b620006ce816200090e565b82525050565b620006df81620008fa565b82525050565b6000620006f282620008d3565b620006fe8185620008de565b93506200071081856020860162000951565b6200071b81620009b6565b840191505092915050565b60006200073382620008d3565b6200073f8185620008ef565b93506200075181856020860162000951565b80840191505092915050565b60006200076c601283620008de565b91507f4e616d6520616c72656164792074616b656e00000000000000000000000000006000830152602082019050919050565b6000620007ad828462000726565b915081905092915050565b6000602082019050620007cf6000830184620006d4565b92915050565b6000602082019050620007ec6000830184620006c3565b92915050565b600060208201905081810360008301526200080e8184620006e5565b905092915050565b60006040820190508181036000830152620008328185620006e5565b9050620008436020830184620006d4565b9392505050565b6000602082019050818103600083015262000865816200075d565b9050919050565b6000604051905081810181811067ffffffffffffffff8211171562000896576200089562000987565b5b8060405250919050565b600067ffffffffffffffff821115620008be57620008bd62000987565b5b601f19601f8301169050602081019050919050565b600081519050919050565b600082825260208201905092915050565b600081905092915050565b6000620009078262000922565b9050919050565b60006200091b8262000922565b9050919050565b600073ffffffffffffffffffffffffffffffffffffffff82169050919050565b82818337600083830152505050565b60005b838110156200097157808201518184015260208101905062000954565b8381111562000981576000848401525b50505050565b7f4e487b7100000000000000000000000000000000000000000000000000000000600052604160045260246000fd5b6000601f19601f830116905091905056fe60806040526103e86008556103e86009556000600a553480156200002257600080fd5b5060405162002f6838038062002f68833981810160405281019062000048919062000219565b8182816003908051906020019062000062929190620000e0565b5080600490805190602001906200007b929190620000e0565b50505080600560006101000a81548173ffffffffffffffffffffffffffffffffffffffff021916908373ffffffffffffffffffffffffffffffffffffffff1602179055508160069080519060200190620000d7929190620000e0565b505050620003f2565b828054620000ee9062000344565b90600052602060002090601f0160209004810192826200011257600085556200015e565b82601f106200012d57805160ff19168380011785556200015e565b828001600101855582156200015e579182015b828111156200015d57825182559160200191906001019062000140565b5b5090506200016d919062000171565b5090565b5b808211156200018c57600081600090555060010162000172565b5090565b6000620001a7620001a184620002a7565b62000273565b905082815260208101848484011115620001c057600080fd5b620001cd8482856200030e565b509392505050565b600081519050620001e681620003d8565b92915050565b600082601f830112620001fe57600080fd5b81516200021084826020860162000190565b91505092915050565b600080604083850312156200022d57600080fd5b600083015167ffffffffffffffff8111156200024857600080fd5b6200025685828601620001ec565b92505060206200026985828601620001d5565b9150509250929050565b6000604051905081810181811067ffffffffffffffff821117156200029d576200029c620003a9565b5b8060405250919050565b600067ffffffffffffffff821115620002c557620002c4620003a9565b5b601f19601f8301169050602081019050919050565b6000620002e782620002ee565b9050919050565b600073ffffffffffffffffffffffffffffffffffffffff82169050919050565b60005b838110156200032e57808201518184015260208101905062000311565b838111156200033e576000848401525b50505050565b600060028204905060018216806200035d57607f821691505b602082108114156200037457620003736200037a565b5b50919050565b7f4e487b7100000000000000000000000000000000000000000000000000000000600052602260045260246000fd5b7f4e487b7100000000000000000000000000000000000000000000000000000000600052604160045260246000fd5b620003e381620002da565b8114620003ef57600080fd5b50565b612b6680620004026000396000f3fe60806040526004361061014f5760003560e01c806370a08231116100b657806395d89b411161006f57806395d89b4114610463578063a457c2d71461048e578063a9059cbb146104cb578063d58b67bf14610508578063dd62ed3e14610533578063ecc1caef1461057057610156565b806370a08231146103605780637284e4161461039d57806372c39161146103c8578063835c19f3146103f15780638da5cb5b146103fb5780639104c81e1461042657610156565b806323b872dd1161010857806323b872dd1461025d57806326bedd9f1461029a578063313ce567146102a4578063331a6bf5146102cf57806339509351146102f857806361fac54d1461033557610156565b806306fdde0314610158578063084ae0b014610183578063095ea7b3146101ae57806318160ddd146101eb578063193e0c81146102165780631d1dc1f01461023f57610156565b3661015657005b005b34801561016457600080fd5b5061016d61059b565b60405161017a91906125a2565b60405180910390f35b34801561018f57600080fd5b5061019861062d565b6040516101a59190612744565b60405180910390f35b3480156101ba57600080fd5b506101d560048036038101906101d09190611ffb565b610633565b6040516101e29190612587565b60405180910390f35b3480156101f757600080fd5b50610200610651565b60405161020d9190612744565b60405180910390f35b34801561022257600080fd5b5061023d60048036038101906102389190612037565b61065b565b005b610247610705565b6040516102549190612744565b60405180910390f35b34801561026957600080fd5b50610284600480360381019061027f9190611fac565b6108d4565b6040516102919190612587565b60405180910390f35b6102a26109d5565b005b3480156102b057600080fd5b506102b9610af9565b6040516102c691906127bf565b60405180910390f35b3480156102db57600080fd5b506102f660048036038101906102f19190611f47565b610b02565b005b34801561030457600080fd5b5061031f600480360381019061031a9190611ffb565b610bd6565b60405161032c9190612587565b60405180910390f35b34801561034157600080fd5b5061034a610c82565b60405161035791906125a2565b60405180910390f35b34801561036c57600080fd5b5061038760048036038101906103829190611f47565b610d10565b6040516103949190612744565b60405180910390f35b3480156103a957600080fd5b506103b2610d58565b6040516103bf91906125a2565b60405180910390f35b3480156103d457600080fd5b506103ef60048036038101906103ea9190612037565b610de6565b005b6103f9610e90565b005b34801561040757600080fd5b50610410610f35565b60405161041d919061256c565b60405180910390f35b34801561043257600080fd5b5061044d60048036038101906104489190612078565b610f5b565b60405161045a9190612744565b60405180910390f35b34801561046f57600080fd5b50610478611121565b60405161048591906125a2565b60405180910390f35b34801561049a57600080fd5b506104b560048036038101906104b09190611ffb565b6111b3565b6040516104c29190612587565b60405180910390f35b3480156104d757600080fd5b506104f260048036038101906104ed9190611ffb565b6112a7565b6040516104ff9190612587565b60405180910390f35b34801561051457600080fd5b5061051d6112c5565b60405161052a9190612744565b60405180910390f35b34801561053f57600080fd5b5061055a60048036038101906105559190611f70565b6112cb565b6040516105679190612744565b60405180910390f35b34801561057c57600080fd5b50610585611352565b6040516105929190612744565b60405180910390f35b6060600380546105aa90612a03565b80601f01602080910402602001604051908101604052809291908181526020018280546105d690612a03565b80156106235780601f106105f857610100808354040283529160200191610623565b820191906000526020600020905b81548152906001019060200180831161060657829003601f168201915b5050505050905090565b60095481565b6000610647610640611358565b8484611360565b6001905092915050565b6000600254905090565b3373ffffffffffffffffffffffffffffffffffffffff16600560009054906101000a900473ffffffffffffffffffffffffffffffffffffffff1673ffffffffffffffffffffffffffffffffffffffff16146106eb576040517f08c379a00000000000000000000000000000000000000000000000000000000081526004016106e290612644565b60405180910390fd5b8060079080519060200190610701929190611e12565b5050565b60008034141561071857600090506108d1565b60006107436127106107356008543461152b90919063ffffffff16565b61154190919063ffffffff16565b9050600061075a823461155790919063ffffffff16565b9050600560009054906101000a900473ffffffffffffffffffffffffffffffffffffffff1673ffffffffffffffffffffffffffffffffffffffff166108fc839081150290604051600060405180830381858888f193505050501580156107c4573d6000803e3d6000fd5b5060006107cf610651565b9050600061080269021e19e0c9bab24000006107f4854761155790919063ffffffff16565b61152b90919063ffffffff16565b90506000610819838461152b90919063ffffffff16565b905060006064905060008211156108405761083d828461154190919063ffffffff16565b90505b60006108718261086369021e19e0c9bab24000004761152b90919063ffffffff16565b61154190919063ffffffff16565b9050600061087e8261156d565b905061088a3382611850565b7f660af6bb4a190faff3423694a874b4c51006b391c1eb0b2b015e537b51792da68782336040516108bd93929190612788565b60405180910390a180985050505050505050505b90565b60006108e18484846119a4565b6000600160008673ffffffffffffffffffffffffffffffffffffffff1673ffffffffffffffffffffffffffffffffffffffff168152602001908152602001600020600061092c611358565b73ffffffffffffffffffffffffffffffffffffffff1673ffffffffffffffffffffffffffffffffffffffff168152602001908152602001600020549050828110156109ac576040517f08c379a00000000000000000000000000000000000000000000000000000000081526004016109a390612664565b60405180910390fd5b6109c9856109b8611358565b85846109c49190612938565b611360565b60019150509392505050565b60006109df610651565b14156109f2576109ed610e90565b610af7565b6000610a1d612710610a0f6009543461152b90919063ffffffff16565b61154190919063ffffffff16565b90506000610a34823461155790919063ffffffff16565b9050610a4b82600a54611c2390919063ffffffff16565b600a81905550600560009054906101000a900473ffffffffffffffffffffffffffffffffffffffff1673ffffffffffffffffffffffffffffffffffffffff166108fc829081150290604051600060405180830381858888f19350505050158015610ab9573d6000803e3d6000fd5b507f4c139b98990908cf13a9cfc318fda30631278a5550428d35a6d2975359d043bc346001604051610aec92919061275f565b60405180910390a150505b565b60006012905090565b3373ffffffffffffffffffffffffffffffffffffffff16600560009054906101000a900473ffffffffffffffffffffffffffffffffffffffff1673ffffffffffffffffffffffffffffffffffffffff1614610b92576040517f08c379a0000000000000000000000000000000000000000000000000000000008152600401610b8990612644565b60405180910390fd5b80600560006101000a81548173ffffffffffffffffffffffffffffffffffffffff021916908373ffffffffffffffffffffffffffffffffffffffff16021790555050565b6000610c78610be3611358565b848460016000610bf1611358565b73ffffffffffffffffffffffffffffffffffffffff1673ffffffffffffffffffffffffffffffffffffffff16815260200190815260200160002060008873ffffffffffffffffffffffffffffffffffffffff1673ffffffffffffffffffffffffffffffffffffffff16815260200190815260200160002054610c739190612857565b611360565b6001905092915050565b60068054610c8f90612a03565b80601f0160208091040260200160405190810160405280929190818152602001828054610cbb90612a03565b8015610d085780601f10610cdd57610100808354040283529160200191610d08565b820191906000526020600020905b815481529060010190602001808311610ceb57829003601f168201915b505050505081565b60008060008373ffffffffffffffffffffffffffffffffffffffff1673ffffffffffffffffffffffffffffffffffffffff168152602001908152602001600020549050919050565b60078054610d6590612a03565b80601f0160208091040260200160405190810160405280929190818152602001828054610d9190612a03565b8015610dde5780601f10610db357610100808354040283529160200191610dde565b820191906000526020600020905b815481529060010190602001808311610dc157829003601f168201915b505050505081565b3373ffffffffffffffffffffffffffffffffffffffff16600560009054906101000a900473ffffffffffffffffffffffffffffffffffffffff1673ffffffffffffffffffffffffffffffffffffffff1614610e76576040517f08c379a0000000000000000000000000000000000000000000000000000000008152600401610e6d90612644565b60405180910390fd5b8060069080519060200190610e8c929190611e12565b5050565b600560009054906101000a900473ffffffffffffffffffffffffffffffffffffffff1673ffffffffffffffffffffffffffffffffffffffff166108fc349081150290604051600060405180830381858888f19350505050158015610ef8573d6000803e3d6000fd5b507f4c139b98990908cf13a9cfc318fda30631278a5550428d35a6d2975359d043bc346000604051610f2b92919061275f565b60405180910390a1565b600560009054906101000a900473ffffffffffffffffffffffffffffffffffffffff1681565b600080821415610f6e576000905061111c565b6000610f78610651565b905082811015610fbd576040517f08c379a0000000000000000000000000000000000000000000000000000000008152600401610fb4906126e4565b60405180910390fd5b6000610fdc69021e19e0c9bab24000004761152b90919063ffffffff16565b90506000610ff3838461152b90919063ffffffff16565b9050600061100a828461154190919063ffffffff16565b90506000611021878661155790919063ffffffff16565b90506000611038828361152b90919063ffffffff16565b9050600061104f828561152b90919063ffffffff16565b9050600061108269021e19e0c9bab2400000611074848a61155790919063ffffffff16565b61154190919063ffffffff16565b905061108e338b611c39565b3373ffffffffffffffffffffffffffffffffffffffff166108fc829081150290604051600060405180830381858888f193505050501580156110d4573d6000803e3d6000fd5b507f281c3c2f326d9c2858a965334361e66894efa0ad54cd3a2c1b1de5d7d75d12b5818b3360405161110893929190612788565b60405180910390a180985050505050505050505b919050565b60606004805461113090612a03565b80601f016020809104026020016040519081016040528092919081815260200182805461115c90612a03565b80156111a95780601f1061117e576101008083540402835291602001916111a9565b820191906000526020600020905b81548152906001019060200180831161118c57829003601f168201915b5050505050905090565b600080600160006111c2611358565b73ffffffffffffffffffffffffffffffffffffffff1673ffffffffffffffffffffffffffffffffffffffff16815260200190815260200160002060008573ffffffffffffffffffffffffffffffffffffffff1673ffffffffffffffffffffffffffffffffffffffff1681526020019081526020016000205490508281101561127f576040517f08c379a000000000000000000000000000000000000000000000000000000000815260040161127690612704565b60405180910390fd5b61129c61128a611358565b8585846112979190612938565b611360565b600191505092915050565b60006112bb6112b4611358565b84846119a4565b6001905092915050565b600a5481565b6000600160008473ffffffffffffffffffffffffffffffffffffffff1673ffffffffffffffffffffffffffffffffffffffff16815260200190815260200160002060008373ffffffffffffffffffffffffffffffffffffffff1673ffffffffffffffffffffffffffffffffffffffff16815260200190815260200160002054905092915050565b60085481565b600033905090565b600073ffffffffffffffffffffffffffffffffffffffff168373ffffffffffffffffffffffffffffffffffffffff1614156113d0576040517f08c379a00000000000000000000000000000000000000000000000000000000081526004016113c7906126c4565b60405180910390fd5b600073ffffffffffffffffffffffffffffffffffffffff168273ffffffffffffffffffffffffffffffffffffffff161415611440576040517f08c379a000000000000000000000000000000000000000000000000000000000815260040161143790612604565b60405180910390fd5b80600160008573ffffffffffffffffffffffffffffffffffffffff1673ffffffffffffffffffffffffffffffffffffffff16815260200190815260200160002060008473ffffffffffffffffffffffffffffffffffffffff1673ffffffffffffffffffffffffffffffffffffffff168152602001908152602001600020819055508173ffffffffffffffffffffffffffffffffffffffff168373ffffffffffffffffffffffffffffffffffffffff167f8c5be1e5ebec7d5bd14f71427d1e84f3dd0314c0f7b2291e5b200ac8c7c3b9258360405161151e9190612744565b60405180910390a3505050565b6000818361153991906128de565b905092915050565b6000818361154f91906128ad565b905092915050565b600081836115659190612938565b905092915050565b600080821415611580576000905061184b565b60008290506001915070010000000000000000000000000000000081106115b057608081901c9050604082901b91505b6801000000000000000081106115cf57604081901c9050602082901b91505b64010000000081106115ea57602081901c9050601082901b91505b62010000811061160357601081901c9050600882901b91505b610100811061161b57600881901c9050600482901b91505b6010811061163257600481901c9050600282901b91505b6008811061164257600182901b91505b600182848161167a577f4e487b7100000000000000000000000000000000000000000000000000000000600052601260045260246000fd5b048301901c915060018284816116b9577f4e487b7100000000000000000000000000000000000000000000000000000000600052601260045260246000fd5b048301901c915060018284816116f8577f4e487b7100000000000000000000000000000000000000000000000000000000600052601260045260246000fd5b048301901c91506001828481611737577f4e487b7100000000000000000000000000000000000000000000000000000000600052601260045260246000fd5b048301901c91506001828481611776577f4e487b7100000000000000000000000000000000000000000000000000000000600052601260045260246000fd5b048301901c915060018284816117b5577f4e487b7100000000000000000000000000000000000000000000000000000000600052601260045260246000fd5b048301901c915060018284816117f4577f4e487b7100000000000000000000000000000000000000000000000000000000600052601260045260246000fd5b048301901c91506000828481611833577f4e487b7100000000000000000000000000000000000000000000000000000000600052601260045260246000fd5b049050808310156118445782611846565b805b925050505b919050565b600073ffffffffffffffffffffffffffffffffffffffff168273ffffffffffffffffffffffffffffffffffffffff1614156118c0576040517f08c379a00000000000000000000000000000000000000000000000000000000081526004016118b790612724565b60405180910390fd5b6118cc60008383611e0d565b80600260008282546118de9190612857565b92505081905550806000808473ffffffffffffffffffffffffffffffffffffffff1673ffffffffffffffffffffffffffffffffffffffff16815260200190815260200160002060008282546119339190612857565b925050819055508173ffffffffffffffffffffffffffffffffffffffff16600073ffffffffffffffffffffffffffffffffffffffff167fddf252ad1be2c89b69c2b068fc378daa952ba7f163c4a11628f55a4df523b3ef836040516119989190612744565b60405180910390a35050565b600073ffffffffffffffffffffffffffffffffffffffff168373ffffffffffffffffffffffffffffffffffffffff161415611a14576040517f08c379a0000000000000000000000000000000000000000000000000000000008152600401611a0b906126a4565b60405180910390fd5b600073ffffffffffffffffffffffffffffffffffffffff168273ffffffffffffffffffffffffffffffffffffffff161415611a84576040517f08c379a0000000000000000000000000000000000000000000000000000000008152600401611a7b906125c4565b60405180910390fd5b611a8f838383611e0d565b60008060008573ffffffffffffffffffffffffffffffffffffffff1673ffffffffffffffffffffffffffffffffffffffff16815260200190815260200160002054905081811015611b15576040517f08c379a0000000000000000000000000000000000000000000000000000000008152600401611b0c90612624565b60405180910390fd5b8181611b219190612938565b6000808673ffffffffffffffffffffffffffffffffffffffff1673ffffffffffffffffffffffffffffffffffffffff16815260200190815260200160002081905550816000808573ffffffffffffffffffffffffffffffffffffffff1673ffffffffffffffffffffffffffffffffffffffff1681526020019081526020016000206000828254611bb19190612857565b925050819055508273ffffffffffffffffffffffffffffffffffffffff168473ffffffffffffffffffffffffffffffffffffffff167fddf252ad1be2c89b69c2b068fc378daa952ba7f163c4a11628f55a4df523b3ef84604051611c159190612744565b60405180910390a350505050565b60008183611c319190612857565b905092915050565b600073ffffffffffffffffffffffffffffffffffffffff168273ffffffffffffffffffffffffffffffffffffffff161415611ca9576040517f08c379a0000000000000000000000000000000000000000000000000000000008152600401611ca090612684565b60405180910390fd5b611cb582600083611e0d565b60008060008473ffffffffffffffffffffffffffffffffffffffff1673ffffffffffffffffffffffffffffffffffffffff16815260200190815260200160002054905081811015611d3b576040517f08c379a0000000000000000000000000000000000000000000000000000000008152600401611d32906125e4565b60405180910390fd5b8181611d479190612938565b6000808573ffffffffffffffffffffffffffffffffffffffff1673ffffffffffffffffffffffffffffffffffffffff168152602001908152602001600020819055508160026000828254611d9b9190612938565b92505081905550600073ffffffffffffffffffffffffffffffffffffffff168373ffffffffffffffffffffffffffffffffffffffff167fddf252ad1be2c89b69c2b068fc378daa952ba7f163c4a11628f55a4df523b3ef84604051611e009190612744565b60405180910390a3505050565b505050565b828054611e1e90612a03565b90600052602060002090601f016020900481019282611e405760008555611e87565b82601f10611e5957805160ff1916838001178555611e87565b82800160010185558215611e87579182015b82811115611e86578251825591602001919060010190611e6b565b5b509050611e949190611e98565b5090565b5b80821115611eb1576000816000905550600101611e99565b5090565b6000611ec8611ec38461280b565b6127da565b905082815260208101848484011115611ee057600080fd5b611eeb8482856129c1565b509392505050565b600081359050611f0281612b02565b92915050565b600082601f830112611f1957600080fd5b8135611f29848260208601611eb5565b91505092915050565b600081359050611f4181612b19565b92915050565b600060208284031215611f5957600080fd5b6000611f6784828501611ef3565b91505092915050565b60008060408385031215611f8357600080fd5b6000611f9185828601611ef3565b9250506020611fa285828601611ef3565b9150509250929050565b600080600060608486031215611fc157600080fd5b6000611fcf86828701611ef3565b9350506020611fe086828701611ef3565b9250506040611ff186828701611f32565b9150509250925092565b6000806040838503121561200e57600080fd5b600061201c85828601611ef3565b925050602061202d85828601611f32565b9150509250929050565b60006020828403121561204957600080fd5b600082013567ffffffffffffffff81111561206357600080fd5b61206f84828501611f08565b91505092915050565b60006020828403121561208a57600080fd5b600061209884828501611f32565b91505092915050565b6120aa8161296c565b82525050565b6120b98161297e565b82525050565b60006120ca8261283b565b6120d48185612846565b93506120e48185602086016129d0565b6120ed81612af1565b840191505092915050565b6000612105602383612846565b91507f45524332303a207472616e7366657220746f20746865207a65726f206164647260008301527f65737300000000000000000000000000000000000000000000000000000000006020830152604082019050919050565b600061216b602283612846565b91507f45524332303a206275726e20616d6f756e7420657863656564732062616c616e60008301527f63650000000000000000000000000000000000000000000000000000000000006020830152604082019050919050565b60006121d1602283612846565b91507f45524332303a20617070726f766520746f20746865207a65726f20616464726560008301527f73730000000000000000000000000000000000000000000000000000000000006020830152604082019050919050565b6000612237602683612846565b91507f45524332303a207472616e7366657220616d6f756e742065786365656473206260008301527f616c616e636500000000000000000000000000000000000000000000000000006020830152604082019050919050565b600061229d601383612846565b91507f556e617574686f72697a656420616374696f6e000000000000000000000000006000830152602082019050919050565b60006122dd602883612846565b91507f45524332303a207472616e7366657220616d6f756e742065786365656473206160008301527f6c6c6f77616e63650000000000000000000000000000000000000000000000006020830152604082019050919050565b6000612343602183612846565b91507f45524332303a206275726e2066726f6d20746865207a65726f2061646472657360008301527f73000000000000000000000000000000000000000000000000000000000000006020830152604082019050919050565b60006123a9602583612846565b91507f45524332303a207472616e736665722066726f6d20746865207a65726f20616460008301527f64726573730000000000000000000000000000000000000000000000000000006020830152604082019050919050565b600061240f602483612846565b91507f45524332303a20617070726f76652066726f6d20746865207a65726f2061646460008301527f72657373000000000000000000000000000000000000000000000000000000006020830152604082019050919050565b6000612475602083612846565b91507f50726f66696c6553746f636b3a20496e73756666696369656e742066756e64736000830152602082019050919050565b60006124b5602583612846565b91507f45524332303a2064656372656173656420616c6c6f77616e63652062656c6f7760008301527f207a65726f0000000000000000000000000000000000000000000000000000006020830152604082019050919050565b600061251b601f83612846565b91507f45524332303a206d696e7420746f20746865207a65726f2061646472657373006000830152602082019050919050565b612557816129aa565b82525050565b612566816129b4565b82525050565b600060208201905061258160008301846120a1565b92915050565b600060208201905061259c60008301846120b0565b92915050565b600060208201905081810360008301526125bc81846120bf565b905092915050565b600060208201905081810360008301526125dd816120f8565b9050919050565b600060208201905081810360008301526125fd8161215e565b9050919050565b6000602082019050818103600083015261261d816121c4565b9050919050565b6000602082019050818103600083015261263d8161222a565b9050919050565b6000602082019050818103600083015261265d81612290565b9050919050565b6000602082019050818103600083015261267d816122d0565b9050919050565b6000602082019050818103600083015261269d81612336565b9050919050565b600060208201905081810360008301526126bd8161239c565b9050919050565b600060208201905081810360008301526126dd81612402565b9050919050565b600060208201905081810360008301526126fd81612468565b9050919050565b6000602082019050818103600083015261271d816124a8565b9050919050565b6000602082019050818103600083015261273d8161250e565b9050919050565b6000602082019050612759600083018461254e565b92915050565b6000604082019050612774600083018561254e565b61278160208301846120b0565b9392505050565b600060608201905061279d600083018661254e565b6127aa602083018561254e565b6127b760408301846120a1565b949350505050565b60006020820190506127d4600083018461255d565b92915050565b6000604051905081810181811067ffffffffffffffff8211171561280157612800612ac2565b5b8060405250919050565b600067ffffffffffffffff82111561282657612825612ac2565b5b601f19601f8301169050602081019050919050565b600081519050919050565b600082825260208201905092915050565b6000612862826129aa565b915061286d836129aa565b9250827fffffffffffffffffffffffffffffffffffffffffffffffffffffffffffffffff038211156128a2576128a1612a35565b5b828201905092915050565b60006128b8826129aa565b91506128c3836129aa565b9250826128d3576128d2612a64565b5b828204905092915050565b60006128e9826129aa565b91506128f4836129aa565b9250817fffffffffffffffffffffffffffffffffffffffffffffffffffffffffffffffff048311821515161561292d5761292c612a35565b5b828202905092915050565b6000612943826129aa565b915061294e836129aa565b92508282101561296157612960612a35565b5b828203905092915050565b60006129778261298a565b9050919050565b60008115159050919050565b600073ffffffffffffffffffffffffffffffffffffffff82169050919050565b6000819050919050565b600060ff82169050919050565b82818337600083830152505050565b60005b838110156129ee5780820151818401526020810190506129d3565b838111156129fd576000848401525b50505050565b60006002820490506001821680612a1b57607f821691505b60208210811415612a2f57612a2e612a93565b5b50919050565b7f4e487b7100000000000000000000000000000000000000000000000000000000600052601160045260246000fd5b7f4e487b7100000000000000000000000000000000000000000000000000000000600052601260045260246000fd5b7f4e487b7100000000000000000000000000000000000000000000000000000000600052602260045260246000fd5b7f4e487b7100000000000000000000000000000000000000000000000000000000600052604160045260246000fd5b6000601f19601f8301169050919050565b612b0b8161296c565b8114612b1657600080fd5b50565b612b22816129aa565b8114612b2d57600080fd5b5056fea26469706673582212206fd8f1d2a3a8cc0fb10e9b18de22424e9fd227bed8d773ab9af6c54ecbaa1e1264736f6c63430008000033a2646970667358221220e16abdd93b728c97239066734f6c273e45cdc767a6b8c1408e95b02fe8bf529164736f6c63430008000033",
  "immutableReferences": {},
  "source": "// contracts/CloutProfileFactory.sol\r\n// SPDX-License-Identifier: MIT\r\npragma solidity ^0.8.0;\r\n\r\nimport \"./CloutProfile.sol\";\r\n\r\ncontract CloutProfileFactory {\r\n    event ProfileCreated(address payable profileAddress);\r\n\r\n\t//Registered profiles by name\r\n\tmapping (string => address payable) public profiles;\r\n\t\r\n\t\r\n    function deployNewProfile(string memory name) public returns (address profileAddress) {\r\n\t\trequire ( profiles[name] == payable(0) );\r\n\t\t\r\n        CloutProfile cp = new CloutProfile(name, msg.sender);\r\n\t\tprofiles[name] = payable(cp);\r\n        emit ProfileCreated(payable(cp));\r\n\t\treturn payable(cp);\r\n    }\r\n\t\r\n\tfunction getProfile( string memory name )\r\n\t\tpublic view\r\n\t\treturns (address payable profileAddress)\r\n\t{\r\n\t\treturn profiles[name];\r\n\t}\r\n\t\r\n\tfunction changeProfileName ( string memory oldName, string memory newName )\r\n\t\tpublic\r\n\t\treturns (string memory name)\r\n\t{\r\n\t\trequire ( profiles[newName] == address(0), \"Name already taken\" );\r\n\t\tprofiles[newName] = profiles[oldName];\r\n\t\tprofiles[oldName] = payable(0);\r\n\t\t\r\n\t\tCloutProfile cp = CloutProfile(profiles[newName]);\r\n\t\tcp.setProfileName(newName);\r\n\t\t\r\n\t\treturn newName;\r\n\t}\r\n}",
  "sourcePath": "C:/data/projects/the social cloutwork/proofOfConcept/contracts/contracts/CloutProfileFactory.sol",
  "compiler": {
    "name": "solc",
    "version": "0.8.0+commit.c7dfd78e.Emscripten.clang"
  },
  "schemaVersion": "3.4.1",
  "updatedAt": "2021-07-16T07:14:58.977Z",
  "networkType": "ethereum",
  "devdoc": {
    "kind": "dev",
    "methods": {},
    "version": 1
  },
  "userdoc": {
    "kind": "user",
    "methods": {},
    "version": 1
  }
}