{
  "contractName": "CloutMessages",
  "abi": [
    {
      "inputs": [],
      "stateMutability": "nonpayable",
      "type": "constructor"
    },
    {
      "anonymous": false,
      "inputs": [
        {
          "indexed": true,
          "internalType": "address",
          "name": "owner",
          "type": "address"
        },
        {
          "indexed": true,
          "internalType": "address",
          "name": "approved",
          "type": "address"
        },
        {
          "indexed": true,
          "internalType": "uint256",
          "name": "tokenId",
          "type": "uint256"
        }
      ],
      "name": "Approval",
      "type": "event"
    },
    {
      "anonymous": false,
      "inputs": [
        {
          "indexed": true,
          "internalType": "address",
          "name": "owner",
          "type": "address"
        },
        {
          "indexed": true,
          "internalType": "address",
          "name": "operator",
          "type": "address"
        },
        {
          "indexed": false,
          "internalType": "bool",
          "name": "approved",
          "type": "bool"
        }
      ],
      "name": "ApprovalForAll",
      "type": "event"
    },
    {
      "anonymous": false,
      "inputs": [
        {
          "indexed": false,
          "internalType": "uint256",
          "name": "messageId",
          "type": "uint256"
        },
        {
          "indexed": false,
          "internalType": "uint256",
          "name": "replyToId",
          "type": "uint256"
        }
      ],
      "name": "CommentPublished",
      "type": "event"
    },
    {
      "anonymous": false,
      "inputs": [
        {
          "indexed": false,
          "internalType": "uint256",
          "name": "messageId",
          "type": "uint256"
        }
      ],
      "name": "MessagePublished",
      "type": "event"
    },
    {
      "anonymous": false,
      "inputs": [
        {
          "indexed": true,
          "internalType": "address",
          "name": "from",
          "type": "address"
        },
        {
          "indexed": true,
          "internalType": "address",
          "name": "to",
          "type": "address"
        },
        {
          "indexed": true,
          "internalType": "uint256",
          "name": "tokenId",
          "type": "uint256"
        }
      ],
      "name": "Transfer",
      "type": "event"
    },
    {
      "inputs": [
        {
          "internalType": "address",
          "name": "",
          "type": "address"
        }
      ],
      "name": "_balances",
      "outputs": [
        {
          "internalType": "uint256",
          "name": "",
          "type": "uint256"
        }
      ],
      "stateMutability": "view",
      "type": "function",
      "constant": true
    },
    {
      "inputs": [
        {
          "internalType": "string",
          "name": "",
          "type": "string"
        }
      ],
      "name": "_messageTypes",
      "outputs": [
        {
          "internalType": "address",
          "name": "",
          "type": "address"
        }
      ],
      "stateMutability": "view",
      "type": "function",
      "constant": true
    },
    {
      "inputs": [
        {
          "internalType": "address",
          "name": "to",
          "type": "address"
        },
        {
          "internalType": "uint256",
          "name": "tokenId",
          "type": "uint256"
        }
      ],
      "name": "approve",
      "outputs": [],
      "stateMutability": "nonpayable",
      "type": "function"
    },
    {
      "inputs": [
        {
          "internalType": "address",
          "name": "owner",
          "type": "address"
        }
      ],
      "name": "balanceOf",
      "outputs": [
        {
          "internalType": "uint256",
          "name": "",
          "type": "uint256"
        }
      ],
      "stateMutability": "view",
      "type": "function",
      "constant": true
    },
    {
      "inputs": [
        {
          "internalType": "uint256",
          "name": "",
          "type": "uint256"
        }
      ],
      "name": "cloutMessages",
      "outputs": [
        {
          "internalType": "bool",
          "name": "isEditable",
          "type": "bool"
        },
        {
          "internalType": "bool",
          "name": "isPrivate",
          "type": "bool"
        },
        {
          "internalType": "uint256",
          "name": "replyToId",
          "type": "uint256"
        },
        {
          "internalType": "string",
          "name": "messageType",
          "type": "string"
        },
        {
          "internalType": "string",
          "name": "message",
          "type": "string"
        }
      ],
      "stateMutability": "view",
      "type": "function",
      "constant": true
    },
    {
      "inputs": [
        {
          "internalType": "uint256",
          "name": "",
          "type": "uint256"
        }
      ],
      "name": "creators",
      "outputs": [
        {
          "internalType": "address payable",
          "name": "",
          "type": "address"
        }
      ],
      "stateMutability": "view",
      "type": "function",
      "constant": true
    },
    {
      "inputs": [
        {
          "internalType": "uint256",
          "name": "tokenId",
          "type": "uint256"
        }
      ],
      "name": "getApproved",
      "outputs": [
        {
          "internalType": "address",
          "name": "",
          "type": "address"
        }
      ],
      "stateMutability": "view",
      "type": "function",
      "constant": true
    },
    {
      "inputs": [
        {
          "internalType": "address",
          "name": "owner",
          "type": "address"
        },
        {
          "internalType": "address",
          "name": "operator",
          "type": "address"
        }
      ],
      "name": "isApprovedForAll",
      "outputs": [
        {
          "internalType": "bool",
          "name": "",
          "type": "bool"
        }
      ],
      "stateMutability": "view",
      "type": "function",
      "constant": true
    },
    {
      "inputs": [],
      "name": "name",
      "outputs": [
        {
          "internalType": "string",
          "name": "",
          "type": "string"
        }
      ],
      "stateMutability": "view",
      "type": "function",
      "constant": true
    },
    {
      "inputs": [
        {
          "internalType": "uint256",
          "name": "tokenId",
          "type": "uint256"
        }
      ],
      "name": "ownerOf",
      "outputs": [
        {
          "internalType": "address",
          "name": "",
          "type": "address"
        }
      ],
      "stateMutability": "view",
      "type": "function",
      "constant": true
    },
    {
      "inputs": [
        {
          "internalType": "uint256",
          "name": "",
          "type": "uint256"
        }
      ],
      "name": "owners",
      "outputs": [
        {
          "internalType": "address payable",
          "name": "",
          "type": "address"
        }
      ],
      "stateMutability": "view",
      "type": "function",
      "constant": true
    },
    {
      "inputs": [
        {
          "internalType": "address",
          "name": "",
          "type": "address"
        },
        {
          "internalType": "uint256",
          "name": "",
          "type": "uint256"
        }
      ],
      "name": "profileMessages",
      "outputs": [
        {
          "internalType": "uint256",
          "name": "",
          "type": "uint256"
        }
      ],
      "stateMutability": "view",
      "type": "function",
      "constant": true
    },
    {
      "inputs": [
        {
          "internalType": "address",
          "name": "from",
          "type": "address"
        },
        {
          "internalType": "address",
          "name": "to",
          "type": "address"
        },
        {
          "internalType": "uint256",
          "name": "tokenId",
          "type": "uint256"
        }
      ],
      "name": "safeTransferFrom",
      "outputs": [],
      "stateMutability": "nonpayable",
      "type": "function"
    },
    {
      "inputs": [
        {
          "internalType": "address",
          "name": "from",
          "type": "address"
        },
        {
          "internalType": "address",
          "name": "to",
          "type": "address"
        },
        {
          "internalType": "uint256",
          "name": "tokenId",
          "type": "uint256"
        },
        {
          "internalType": "bytes",
          "name": "_data",
          "type": "bytes"
        }
      ],
      "name": "safeTransferFrom",
      "outputs": [],
      "stateMutability": "nonpayable",
      "type": "function"
    },
    {
      "inputs": [
        {
          "internalType": "address",
          "name": "operator",
          "type": "address"
        },
        {
          "internalType": "bool",
          "name": "approved",
          "type": "bool"
        }
      ],
      "name": "setApprovalForAll",
      "outputs": [],
      "stateMutability": "nonpayable",
      "type": "function"
    },
    {
      "inputs": [
        {
          "internalType": "bytes4",
          "name": "interfaceId",
          "type": "bytes4"
        }
      ],
      "name": "supportsInterface",
      "outputs": [
        {
          "internalType": "bool",
          "name": "",
          "type": "bool"
        }
      ],
      "stateMutability": "view",
      "type": "function",
      "constant": true
    },
    {
      "inputs": [],
      "name": "symbol",
      "outputs": [
        {
          "internalType": "string",
          "name": "",
          "type": "string"
        }
      ],
      "stateMutability": "view",
      "type": "function",
      "constant": true
    },
    {
      "inputs": [
        {
          "internalType": "uint256",
          "name": "tokenId",
          "type": "uint256"
        }
      ],
      "name": "tokenURI",
      "outputs": [
        {
          "internalType": "string",
          "name": "",
          "type": "string"
        }
      ],
      "stateMutability": "view",
      "type": "function",
      "constant": true
    },
    {
      "inputs": [
        {
          "internalType": "address",
          "name": "from",
          "type": "address"
        },
        {
          "internalType": "address",
          "name": "to",
          "type": "address"
        },
        {
          "internalType": "uint256",
          "name": "tokenId",
          "type": "uint256"
        }
      ],
      "name": "transferFrom",
      "outputs": [],
      "stateMutability": "nonpayable",
      "type": "function"
    },
    {
      "inputs": [
        {
          "internalType": "address payable",
          "name": "profileAddress",
          "type": "address"
        },
        {
          "internalType": "uint256",
          "name": "replyToId",
          "type": "uint256"
        },
        {
          "internalType": "string",
          "name": "message",
          "type": "string"
        },
        {
          "internalType": "string",
          "name": "messageType",
          "type": "string"
        },
        {
          "internalType": "string[]",
          "name": "extra",
          "type": "string[]"
        }
      ],
      "name": "publishTypedMessage",
      "outputs": [
        {
          "internalType": "uint256",
          "name": "newMessageId",
          "type": "uint256"
        }
      ],
      "stateMutability": "nonpayable",
      "type": "function"
    },
    {
      "inputs": [
        {
          "internalType": "address payable",
          "name": "profileAddress",
          "type": "address"
        },
        {
          "internalType": "uint256",
          "name": "replyToId",
          "type": "uint256"
        },
        {
          "internalType": "string",
          "name": "message",
          "type": "string"
        }
      ],
      "name": "publishMessage",
      "outputs": [
        {
          "internalType": "uint256",
          "name": "messageId",
          "type": "uint256"
        }
      ],
      "stateMutability": "nonpayable",
      "type": "function"
    },
    {
      "inputs": [
        {
          "internalType": "address payable",
          "name": "profileAddress",
          "type": "address"
        },
        {
          "internalType": "uint256",
          "name": "messageId",
          "type": "uint256"
        }
      ],
      "name": "retweet",
      "outputs": [],
      "stateMutability": "nonpayable",
      "type": "function"
    },
    {
      "inputs": [],
      "name": "totalSupply",
      "outputs": [
        {
          "internalType": "uint256",
          "name": "",
          "type": "uint256"
        }
      ],
      "stateMutability": "view",
      "type": "function",
      "constant": true
    },
    {
      "inputs": [
        {
          "internalType": "uint256",
          "name": "index",
          "type": "uint256"
        }
      ],
      "name": "getMessage",
      "outputs": [
        {
          "internalType": "uint256",
          "name": "messageId",
          "type": "uint256"
        },
        {
          "internalType": "string",
          "name": "ownerName",
          "type": "string"
        },
        {
          "internalType": "string",
          "name": "messageURI",
          "type": "string"
        },
        {
          "internalType": "uint256",
          "name": "replyToId",
          "type": "uint256"
        },
        {
          "internalType": "uint256[]",
          "name": "comments",
          "type": "uint256[]"
        },
        {
          "internalType": "string[]",
          "name": "interactions",
          "type": "string[]"
        }
      ],
      "stateMutability": "view",
      "type": "function",
      "constant": true
    },
    {
      "inputs": [
        {
          "internalType": "address",
          "name": "profile",
          "type": "address"
        }
      ],
      "name": "getProfileMessages",
      "outputs": [
        {
          "internalType": "uint256[]",
          "name": "messages",
          "type": "uint256[]"
        }
      ],
      "stateMutability": "view",
      "type": "function",
      "constant": true
    },
    {
      "inputs": [
        {
          "internalType": "address",
          "name": "_add",
          "type": "address"
        }
      ],
      "name": "updateMessageTypeAddress",
      "outputs": [],
      "stateMutability": "nonpayable",
      "type": "function"
    }
  ],
  "bytecode": "0x608060405260405180604001604052806040518060400160405280600481526020017f6c696b650000000000000000000000000000000000000000000000000000000081525081526020016040518060400160405280600481526020017f7469707300000000000000000000000000000000000000000000000000000000815250815250600c906002620000959291906200014a565b50348015620000a357600080fd5b506040518060400160405280600d81526020017f436c6f75744d65737361676573000000000000000000000000000000000000008152506040518060400160405280600481526020017f434d736700000000000000000000000000000000000000000000000000000000815250816000908051906020019062000128929190620001b1565b50806001908051906020019062000141929190620001b1565b50505062000334565b8280548282559060005260206000209081019282156200019e579160200282015b828111156200019d5782518290805190602001906200018c929190620001b1565b50916020019190600101906200016b565b5b509050620001ad919062000242565b5090565b828054620001bf90620002cf565b90600052602060002090601f016020900481019282620001e357600085556200022f565b82601f10620001fe57805160ff19168380011785556200022f565b828001600101855582156200022f579182015b828111156200022e57825182559160200191906001019062000211565b5b5090506200023e91906200026a565b5090565b5b808211156200026657600081816200025c919062000289565b5060010162000243565b5090565b5b80821115620002855760008160009055506001016200026b565b5090565b5080546200029790620002cf565b6000825580601f10620002ab5750620002cc565b601f016020900490600052602060002090810190620002cb91906200026a565b5b50565b60006002820490506001821680620002e857607f821691505b60208210811415620002ff57620002fe62000305565b5b50919050565b7f4e487b7100000000000000000000000000000000000000000000000000000000600052602260045260246000fd5b613f7180620003446000396000f3fe608060405234801561001057600080fd5b506004361061018e5760003560e01c806370a08231116100de578063b42429b411610097578063cd53d08e11610071578063cd53d08e1461050e578063e042e7b21461053e578063e985e9c51461055a578063ebc5552e1461058a5761018e565b8063b42429b414610492578063b88d4fde146104c2578063c87b56dd146104de5761018e565b806370a082311461038f57806386f79edb146103bf57806390377f85146103f457806395d89b4114610424578063a22cb46514610442578063a4fea9e71461045e5761018e565b806323b872dd1161014b5780635e694fc2116101255780635e694fc2146102cf57806362eb94a9146102ff5780636352211e1461032f5780636ebcf6071461035f5761018e565b806323b872dd1461027b57806342842e0e14610297578063509a2c10146102b35761018e565b806301ffc9a714610193578063025e7c27146101c357806306fdde03146101f3578063081812fc14610211578063095ea7b31461024157806318160ddd1461025d575b600080fd5b6101ad60048036038101906101a89190612e1d565b6105ba565b6040516101ba919061372a565b60405180910390f35b6101dd60048036038101906101d89190612ef1565b61069c565b6040516101ea91906136a1565b60405180910390f35b6101fb6106cf565b60405161020891906137a6565b60405180910390f35b61022b60048036038101906102269190612ef1565b610761565b6040516102389190613686565b60405180910390f35b61025b60048036038101906102569190612de1565b6107e6565b005b6102656108fe565b6040516102729190613988565b60405180910390f35b61029560048036038101906102909190612cdb565b61090b565b005b6102b160048036038101906102ac9190612cdb565b61096b565b005b6102cd60048036038101906102c89190612aeb565b61098b565b005b6102e960048036038101906102e49190612aeb565b61098e565b6040516102f69190613708565b60405180910390f35b61031960048036038101906103149190612e6f565b610a25565b6040516103269190613686565b60405180910390f35b61034960048036038101906103449190612ef1565b610a6e565b6040516103569190613686565b60405180910390f35b61037960048036038101906103749190612aeb565b610b20565b6040516103869190613988565b60405180910390f35b6103a960048036038101906103a49190612aeb565b610b38565b6040516103b69190613988565b60405180910390f35b6103d960048036038101906103d49190612ef1565b610bf0565b6040516103eb969594939291906139a3565b60405180910390f35b61040e60048036038101906104099190612be0565b6110ad565b60405161041b9190613988565b60405180910390f35b61042c611623565b60405161043991906137a6565b60405180910390f35b61045c60048036038101906104579190612da5565b6116b5565b005b61047860048036038101906104739190612ef1565b611836565b604051610489959493929190613745565b60405180910390f35b6104ac60048036038101906104a79190612b79565b6119a6565b6040516104b99190613988565b60405180910390f35b6104dc60048036038101906104d79190612d2a565b6119f6565b005b6104f860048036038101906104f39190612ef1565b611a58565b60405161050591906137a6565b60405180910390f35b61052860048036038101906105239190612ef1565b611aff565b60405161053591906136a1565b60405180910390f35b61055860048036038101906105539190612b3d565b611b32565b005b610574600480360381019061056f9190612c9f565b611d37565b604051610581919061372a565b60405180910390f35b6105a4600480360381019061059f9190612de1565b611dcb565b6040516105b19190613988565b60405180910390f35b60007f80ac58cd000000000000000000000000000000000000000000000000000000007bffffffffffffffffffffffffffffffffffffffffffffffffffffffff1916827bffffffffffffffffffffffffffffffffffffffffffffffffffffffff1916148061068557507f5b5e139f000000000000000000000000000000000000000000000000000000007bffffffffffffffffffffffffffffffffffffffffffffffffffffffff1916827bffffffffffffffffffffffffffffffffffffffffffffffffffffffff1916145b80610695575061069482611dfc565b5b9050919050565b60076020528060005260406000206000915054906101000a900473ffffffffffffffffffffffffffffffffffffffff1681565b6060600080546106de90613d4f565b80601f016020809104026020016040519081016040528092919081815260200182805461070a90613d4f565b80156107575780601f1061072c57610100808354040283529160200191610757565b820191906000526020600020905b81548152906001019060200180831161073a57829003601f168201915b5050505050905090565b600061076c82611e66565b6107ab576040517f08c379a00000000000000000000000000000000000000000000000000000000081526004016107a2906138e8565b60405180910390fd5b6004600083815260200190815260200160002060009054906101000a900473ffffffffffffffffffffffffffffffffffffffff169050919050565b60006107f182610a6e565b90508073ffffffffffffffffffffffffffffffffffffffff168373ffffffffffffffffffffffffffffffffffffffff161415610862576040517f08c379a000000000000000000000000000000000000000000000000000000000815260040161085990613948565b60405180910390fd5b8073ffffffffffffffffffffffffffffffffffffffff16610881611ed2565b73ffffffffffffffffffffffffffffffffffffffff1614806108b057506108af816108aa611ed2565b611d37565b5b6108ef576040517f08c379a00000000000000000000000000000000000000000000000000000000081526004016108e690613888565b60405180910390fd5b6108f98383611eda565b505050565b6000600b80549050905090565b61091c610916611ed2565b82611f93565b61095b576040517f08c379a000000000000000000000000000000000000000000000000000000000815260040161095290613968565b60405180910390fd5b610966838383612071565b505050565b610986838383604051806020016040528060008152506119f6565b505050565b50565b6060600a60008373ffffffffffffffffffffffffffffffffffffffff1673ffffffffffffffffffffffffffffffffffffffff168152602001908152602001600020805480602002602001604051908101604052809291908181526020018280548015610a1957602002820191906000526020600020905b815481526020019060010190808311610a05575b50505050509050919050565b6006818051602081018201805184825260208301602085012081835280955050505050506000915054906101000a900473ffffffffffffffffffffffffffffffffffffffff1681565b6000806002600084815260200190815260200160002060009054906101000a900473ffffffffffffffffffffffffffffffffffffffff169050600073ffffffffffffffffffffffffffffffffffffffff168173ffffffffffffffffffffffffffffffffffffffff161415610b17576040517f08c379a0000000000000000000000000000000000000000000000000000000008152600401610b0e906138c8565b60405180910390fd5b80915050919050565b60096020528060005260406000206000915090505481565b60008073ffffffffffffffffffffffffffffffffffffffff168273ffffffffffffffffffffffffffffffffffffffff161415610ba9576040517f08c379a0000000000000000000000000000000000000000000000000000000008152600401610ba0906138a8565b60405180910390fd5b600360008373ffffffffffffffffffffffffffffffffffffffff1673ffffffffffffffffffffffffffffffffffffffff168152602001908152602001600020549050919050565b600060608060006060806000600b8881548110610c36577f4e487b7100000000000000000000000000000000000000000000000000000000600052603260045260246000fd5b9060005260206000209060070201604051806101000160405290816000820160009054906101000a900460ff161515151581526020016000820160019054906101000a900460ff1615151515815260200160018201548152602001600282018054610ca090613d4f565b80601f0160208091040260200160405190810160405280929190818152602001828054610ccc90613d4f565b8015610d195780601f10610cee57610100808354040283529160200191610d19565b820191906000526020600020905b815481529060010190602001808311610cfc57829003601f168201915b50505050508152602001600382018054610d3290613d4f565b80601f0160208091040260200160405190810160405280929190818152602001828054610d5e90613d4f565b8015610dab5780601f10610d8057610100808354040283529160200191610dab565b820191906000526020600020905b815481529060010190602001808311610d8e57829003601f168201915b5050505050815260200160048201805480602002602001604051908101604052809291908181526020016000905b82821015610e85578382906000526020600020018054610df890613d4f565b80601f0160208091040260200160405190810160405280929190818152602001828054610e2490613d4f565b8015610e715780601f10610e4657610100808354040283529160200191610e71565b820191906000526020600020905b815481529060010190602001808311610e5457829003601f168201915b505050505081526020019060010190610dd9565b50505050815260200160058201805480602002602001604051908101604052809291908181526020016000905b82821015610f5e578382906000526020600020018054610ed190613d4f565b80601f0160208091040260200160405190810160405280929190818152602001828054610efd90613d4f565b8015610f4a5780601f10610f1f57610100808354040283529160200191610f4a565b820191906000526020600020905b815481529060010190602001808311610f2d57829003601f168201915b505050505081526020019060010190610eb2565b50505050815260200160068201805480602002602001604051908101604052809291908181526020018280548015610fb557602002820191906000526020600020905b815481526020019060010190808311610fa1575b50505050508152505090506000600760008a815260200190815260200160002060009054906101000a900473ffffffffffffffffffffffffffffffffffffffff16905060008173ffffffffffffffffffffffffffffffffffffffff166361fac54d6040518163ffffffff1660e01b815260040160006040518083038186803b15801561104057600080fd5b505afa158015611054573d6000803e3d6000fd5b505050506040513d6000823e3d601f19601f8201168201806040525081019061107d9190612eb0565b90508981846080015185604001518660e001518760c0015198509850985098509850985050505091939550919395565b600085600081905060008173ffffffffffffffffffffffffffffffffffffffff16638da5cb5b6040518163ffffffff1660e01b815260040160206040518083038186803b1580156110fd57600080fd5b505afa158015611111573d6000803e3d6000fd5b505050506040513d601f19601f820116820180604052508101906111359190612b14565b90503373ffffffffffffffffffffffffffffffffffffffff168173ffffffffffffffffffffffffffffffffffffffff16146111a5576040517f08c379a000000000000000000000000000000000000000000000000000000000815260040161119c906137c8565b60405180910390fd5b6111ad61269c565b60008911156111c157888160400181815250505b868160600181905250878160800181905250600c805480602002602001604051908101604052809291908181526020016000905b828210156112a157838290600052602060002001805461121490613d4f565b80601f016020809104026020016040519081016040528092919081815260200182805461124090613d4f565b801561128d5780601f106112625761010080835404028352916020019161128d565b820191906000526020600020905b81548152906001019060200180831161127057829003601f168201915b5050505050815260200190600101906111f5565b505050508160c001819052506000600b805490509050600b82908060018154018082558091505060019003906000526020600020906007020160009091909190915060008201518160000160006101000a81548160ff02191690831515021790555060208201518160000160016101000a81548160ff0219169083151502179055506040820151816001015560608201518160020190805190602001906113499291906126e5565b5060808201518160030190805190602001906113669291906126e5565b5060a082015181600401908051906020019061138392919061276b565b5060c08201518160050190805190602001906113a092919061276b565b5060e08201518160060190805190602001906113bd9291906127cb565b5050506001600960008d73ffffffffffffffffffffffffffffffffffffffff1673ffffffffffffffffffffffffffffffffffffffff16815260200190815260200160002060008282546114109190613bcc565b925050819055508a6007600083815260200190815260200160002060006101000a81548173ffffffffffffffffffffffffffffffffffffffff021916908373ffffffffffffffffffffffffffffffffffffffff1602179055508a6008600083815260200190815260200160002060006101000a81548173ffffffffffffffffffffffffffffffffffffffff021916908373ffffffffffffffffffffffffffffffffffffffff160217905550600a60008c73ffffffffffffffffffffffffffffffffffffffff1673ffffffffffffffffffffffffffffffffffffffff16815260200190815260200160002081908060018154018082558091505060019003906000526020600020016000909190919091505560008a11156115da57600b8a81548110611564577f4e487b7100000000000000000000000000000000000000000000000000000000600052603260045260246000fd5b90600052602060002090600702016006018190806001815401808255809150506001900390600052602060002001600090919091909150557fec5705f79dec7d9e01e4bf8bc66cc34495b9b2a1d7a6f479a6a7403d1b5db037818b6040516115cd929190613a20565b60405180910390a1611612565b7ff0c16dd168900b1eab3eb8af98a1c95b091a37b14e8807806e2e3b3a23ec149b816040516116099190613988565b60405180910390a15b809550505050505095945050505050565b60606001805461163290613d4f565b80601f016020809104026020016040519081016040528092919081815260200182805461165e90613d4f565b80156116ab5780601f10611680576101008083540402835291602001916116ab565b820191906000526020600020905b81548152906001019060200180831161168e57829003601f168201915b5050505050905090565b6116bd611ed2565b73ffffffffffffffffffffffffffffffffffffffff168273ffffffffffffffffffffffffffffffffffffffff16141561172b576040517f08c379a000000000000000000000000000000000000000000000000000000000815260040161172290613848565b60405180910390fd5b8060056000611738611ed2565b73ffffffffffffffffffffffffffffffffffffffff1673ffffffffffffffffffffffffffffffffffffffff16815260200190815260200160002060008473ffffffffffffffffffffffffffffffffffffffff1673ffffffffffffffffffffffffffffffffffffffff16815260200190815260200160002060006101000a81548160ff0219169083151502179055508173ffffffffffffffffffffffffffffffffffffffff166117e5611ed2565b73ffffffffffffffffffffffffffffffffffffffff167f17307eab39ab6107e8899845ad3d59bd9653f200f220920489ca2b5937696c318360405161182a919061372a565b60405180910390a35050565b600b818154811061184657600080fd5b90600052602060002090600702016000915090508060000160009054906101000a900460ff16908060000160019054906101000a900460ff169080600101549080600201805461189590613d4f565b80601f01602080910402602001604051908101604052809291908181526020018280546118c190613d4f565b801561190e5780601f106118e35761010080835404028352916020019161190e565b820191906000526020600020905b8154815290600101906020018083116118f157829003601f168201915b50505050509080600301805461192390613d4f565b80601f016020809104026020016040519081016040528092919081815260200182805461194f90613d4f565b801561199c5780601f106119715761010080835404028352916020019161199c565b820191906000526020600020905b81548152906001019060200180831161197f57829003601f168201915b5050505050905085565b600060606119ec8585856040518060400160405280600581526020017f7477656574000000000000000000000000000000000000000000000000000000815250856110ad565b9150509392505050565b611a07611a01611ed2565b83611f93565b611a46576040517f08c379a0000000000000000000000000000000000000000000000000000000008152600401611a3d90613968565b60405180910390fd5b611a52848484846122cd565b50505050565b6060611a6382611e66565b611aa2576040517f08c379a0000000000000000000000000000000000000000000000000000000008152600401611a9990613928565b60405180910390fd5b6000611aac612329565b90506000815111611acc5760405180602001604052806000815250611af7565b80611ad684612340565b604051602001611ae7929190613662565b6040516020818303038152906040525b915050919050565b60086020528060005260406000206000915054906101000a900473ffffffffffffffffffffffffffffffffffffffff1681565b81600081905060008173ffffffffffffffffffffffffffffffffffffffff16638da5cb5b6040518163ffffffff1660e01b815260040160206040518083038186803b158015611b8057600080fd5b505afa158015611b94573d6000803e3d6000fd5b505050506040513d601f19601f82011682018060405250810190611bb89190612b14565b90503373ffffffffffffffffffffffffffffffffffffffff168173ffffffffffffffffffffffffffffffffffffffff1614611c28576040517f08c379a0000000000000000000000000000000000000000000000000000000008152600401611c1f906137c8565b60405180910390fd5b6007600085815260200190815260200160002060009054906101000a900473ffffffffffffffffffffffffffffffffffffffff1673ffffffffffffffffffffffffffffffffffffffff168573ffffffffffffffffffffffffffffffffffffffff161415611cca576040517f08c379a0000000000000000000000000000000000000000000000000000000008152600401611cc190613808565b60405180910390fd5b600a60008673ffffffffffffffffffffffffffffffffffffffff1673ffffffffffffffffffffffffffffffffffffffff1681526020019081526020016000208490806001815401808255809150506001900390600052602060002001600090919091909150555050505050565b6000600560008473ffffffffffffffffffffffffffffffffffffffff1673ffffffffffffffffffffffffffffffffffffffff16815260200190815260200160002060008373ffffffffffffffffffffffffffffffffffffffff1673ffffffffffffffffffffffffffffffffffffffff16815260200190815260200160002060009054906101000a900460ff16905092915050565b600a6020528160005260406000208181548110611de757600080fd5b90600052602060002001600091509150505481565b60007f01ffc9a7000000000000000000000000000000000000000000000000000000007bffffffffffffffffffffffffffffffffffffffffffffffffffffffff1916827bffffffffffffffffffffffffffffffffffffffffffffffffffffffff1916149050919050565b60008073ffffffffffffffffffffffffffffffffffffffff166002600084815260200190815260200160002060009054906101000a900473ffffffffffffffffffffffffffffffffffffffff1673ffffffffffffffffffffffffffffffffffffffff1614159050919050565b600033905090565b816004600083815260200190815260200160002060006101000a81548173ffffffffffffffffffffffffffffffffffffffff021916908373ffffffffffffffffffffffffffffffffffffffff160217905550808273ffffffffffffffffffffffffffffffffffffffff16611f4d83610a6e565b73ffffffffffffffffffffffffffffffffffffffff167f8c5be1e5ebec7d5bd14f71427d1e84f3dd0314c0f7b2291e5b200ac8c7c3b92560405160405180910390a45050565b6000611f9e82611e66565b611fdd576040517f08c379a0000000000000000000000000000000000000000000000000000000008152600401611fd490613868565b60405180910390fd5b6000611fe883610a6e565b90508073ffffffffffffffffffffffffffffffffffffffff168473ffffffffffffffffffffffffffffffffffffffff16148061205757508373ffffffffffffffffffffffffffffffffffffffff1661203f84610761565b73ffffffffffffffffffffffffffffffffffffffff16145b8061206857506120678185611d37565b5b91505092915050565b8273ffffffffffffffffffffffffffffffffffffffff1661209182610a6e565b73ffffffffffffffffffffffffffffffffffffffff16146120e7576040517f08c379a00000000000000000000000000000000000000000000000000000000081526004016120de90613908565b60405180910390fd5b600073ffffffffffffffffffffffffffffffffffffffff168273ffffffffffffffffffffffffffffffffffffffff161415612157576040517f08c379a000000000000000000000000000000000000000000000000000000000815260040161214e90613828565b60405180910390fd5b6121628383836124ed565b61216d600082611eda565b6001600360008573ffffffffffffffffffffffffffffffffffffffff1673ffffffffffffffffffffffffffffffffffffffff16815260200190815260200160002060008282546121bd9190613c53565b925050819055506001600360008473ffffffffffffffffffffffffffffffffffffffff1673ffffffffffffffffffffffffffffffffffffffff16815260200190815260200160002060008282546122149190613bcc565b92505081905550816002600083815260200190815260200160002060006101000a81548173ffffffffffffffffffffffffffffffffffffffff021916908373ffffffffffffffffffffffffffffffffffffffff160217905550808273ffffffffffffffffffffffffffffffffffffffff168473ffffffffffffffffffffffffffffffffffffffff167fddf252ad1be2c89b69c2b068fc378daa952ba7f163c4a11628f55a4df523b3ef60405160405180910390a4505050565b6122d8848484612071565b6122e4848484846124f2565b612323576040517f08c379a000000000000000000000000000000000000000000000000000000000815260040161231a906137e8565b60405180910390fd5b50505050565b606060405180602001604052806000815250905090565b60606000821415612388576040518060400160405280600181526020017f300000000000000000000000000000000000000000000000000000000000000081525090506124e8565b600082905060005b600082146123ba5780806123a390613d81565b915050600a826123b39190613c22565b9150612390565b60008167ffffffffffffffff8111156123fc577f4e487b7100000000000000000000000000000000000000000000000000000000600052604160045260246000fd5b6040519080825280601f01601f19166020018201604052801561242e5781602001600182028036833780820191505090505b5090505b600085146124e1576001826124479190613c53565b9150600a856124569190613dca565b60306124629190613bcc565b60f81b81838151811061249e577f4e487b7100000000000000000000000000000000000000000000000000000000600052603260045260246000fd5b60200101907effffffffffffffffffffffffffffffffffffffffffffffffffffffffffffff1916908160001a905350600a856124da9190613c22565b9450612432565b8093505050505b919050565b505050565b60006125138473ffffffffffffffffffffffffffffffffffffffff16612689565b1561267c578373ffffffffffffffffffffffffffffffffffffffff1663150b7a0261253c611ed2565b8786866040518563ffffffff1660e01b815260040161255e94939291906136bc565b602060405180830381600087803b15801561257857600080fd5b505af19250505080156125a957506040513d601f19601f820116820180604052508101906125a69190612e46565b60015b61262c573d80600081146125d9576040519150601f19603f3d011682016040523d82523d6000602084013e6125de565b606091505b50600081511415612624576040517f08c379a000000000000000000000000000000000000000000000000000000000815260040161261b906137e8565b60405180910390fd5b805181602001fd5b63150b7a0260e01b7bffffffffffffffffffffffffffffffffffffffffffffffffffffffff1916817bffffffffffffffffffffffffffffffffffffffffffffffffffffffff191614915050612681565b600190505b949350505050565b600080823b905060008111915050919050565b6040518061010001604052806000151581526020016000151581526020016000815260200160608152602001606081526020016060815260200160608152602001606081525090565b8280546126f190613d4f565b90600052602060002090601f016020900481019282612713576000855561275a565b82601f1061272c57805160ff191683800117855561275a565b8280016001018555821561275a579182015b8281111561275957825182559160200191906001019061273e565b5b5090506127679190612818565b5090565b8280548282559060005260206000209081019282156127ba579160200282015b828111156127b95782518290805190602001906127a99291906126e5565b509160200191906001019061278b565b5b5090506127c79190612835565b5090565b828054828255906000526020600020908101928215612807579160200282015b828111156128065782518255916020019190600101906127eb565b5b5090506128149190612818565b5090565b5b80821115612831576000816000905550600101612819565b5090565b5b80821115612855576000818161284c9190612859565b50600101612836565b5090565b50805461286590613d4f565b6000825580601f106128775750612896565b601f0160209004906000526020600020908101906128959190612818565b5b50565b60006128ac6128a784613a7a565b613a49565b9050808382526020820190508260005b858110156128ec57813585016128d28882612a82565b8452602084019350602083019250506001810190506128bc565b5050509392505050565b600061290961290484613aa6565b613a49565b90508281526020810184848401111561292157600080fd5b61292c848285613d0d565b509392505050565b600061294761294284613ad6565b613a49565b90508281526020810184848401111561295f57600080fd5b61296a848285613d0d565b509392505050565b600061298561298084613ad6565b613a49565b90508281526020810184848401111561299d57600080fd5b6129a8848285613d1c565b509392505050565b6000813590506129bf81613ec8565b92915050565b6000815190506129d481613ec8565b92915050565b6000813590506129e981613edf565b92915050565b600082601f830112612a0057600080fd5b8135612a10848260208601612899565b91505092915050565b600081359050612a2881613ef6565b92915050565b600081359050612a3d81613f0d565b92915050565b600081519050612a5281613f0d565b92915050565b600082601f830112612a6957600080fd5b8135612a798482602086016128f6565b91505092915050565b600082601f830112612a9357600080fd5b8135612aa3848260208601612934565b91505092915050565b600082601f830112612abd57600080fd5b8151612acd848260208601612972565b91505092915050565b600081359050612ae581613f24565b92915050565b600060208284031215612afd57600080fd5b6000612b0b848285016129b0565b91505092915050565b600060208284031215612b2657600080fd5b6000612b34848285016129c5565b91505092915050565b60008060408385031215612b5057600080fd5b6000612b5e858286016129da565b9250506020612b6f85828601612ad6565b9150509250929050565b600080600060608486031215612b8e57600080fd5b6000612b9c868287016129da565b9350506020612bad86828701612ad6565b925050604084013567ffffffffffffffff811115612bca57600080fd5b612bd686828701612a82565b9150509250925092565b600080600080600060a08688031215612bf857600080fd5b6000612c06888289016129da565b9550506020612c1788828901612ad6565b945050604086013567ffffffffffffffff811115612c3457600080fd5b612c4088828901612a82565b935050606086013567ffffffffffffffff811115612c5d57600080fd5b612c6988828901612a82565b925050608086013567ffffffffffffffff811115612c8657600080fd5b612c92888289016129ef565b9150509295509295909350565b60008060408385031215612cb257600080fd5b6000612cc0858286016129b0565b9250506020612cd1858286016129b0565b9150509250929050565b600080600060608486031215612cf057600080fd5b6000612cfe868287016129b0565b9350506020612d0f868287016129b0565b9250506040612d2086828701612ad6565b9150509250925092565b60008060008060808587031215612d4057600080fd5b6000612d4e878288016129b0565b9450506020612d5f878288016129b0565b9350506040612d7087828801612ad6565b925050606085013567ffffffffffffffff811115612d8d57600080fd5b612d9987828801612a58565b91505092959194509250565b60008060408385031215612db857600080fd5b6000612dc6858286016129b0565b9250506020612dd785828601612a19565b9150509250929050565b60008060408385031215612df457600080fd5b6000612e02858286016129b0565b9250506020612e1385828601612ad6565b9150509250929050565b600060208284031215612e2f57600080fd5b6000612e3d84828501612a2e565b91505092915050565b600060208284031215612e5857600080fd5b6000612e6684828501612a43565b91505092915050565b600060208284031215612e8157600080fd5b600082013567ffffffffffffffff811115612e9b57600080fd5b612ea784828501612a82565b91505092915050565b600060208284031215612ec257600080fd5b600082015167ffffffffffffffff811115612edc57600080fd5b612ee884828501612aac565b91505092915050565b600060208284031215612f0357600080fd5b6000612f1184828501612ad6565b91505092915050565b6000612f26838361307f565b905092915050565b6000612f3a8383613644565b60208301905092915050565b612f4f81613c99565b82525050565b612f5e81613c87565b82525050565b6000612f6f82613b26565b612f798185613b6c565b935083602082028501612f8b85613b06565b8060005b85811015612fc75784840389528151612fa88582612f1a565b9450612fb383613b52565b925060208a01995050600181019050612f8f565b50829750879550505050505092915050565b6000612fe482613b31565b612fee8185613b7d565b9350612ff983613b16565b8060005b8381101561302a5781516130118882612f2e565b975061301c83613b5f565b925050600181019050612ffd565b5085935050505092915050565b61304081613cab565b82525050565b600061305182613b3c565b61305b8185613b8e565b935061306b818560208601613d1c565b61307481613eb7565b840191505092915050565b600061308a82613b47565b6130948185613b9f565b93506130a4818560208601613d1c565b6130ad81613eb7565b840191505092915050565b60006130c382613b47565b6130cd8185613bb0565b93506130dd818560208601613d1c565b6130e681613eb7565b840191505092915050565b60006130fc82613b47565b6131068185613bc1565b9350613116818560208601613d1c565b80840191505092915050565b600061312f600f83613bb0565b91507f496e76616c69642050726f66696c6500000000000000000000000000000000006000830152602082019050919050565b600061316f603283613bb0565b91507f4552433732313a207472616e7366657220746f206e6f6e20455243373231526560008301527f63656976657220696d706c656d656e74657200000000000000000000000000006020830152604082019050919050565b60006131d5601a83613bb0565b91507f43616e27742072657477656574206f776e206d657373616765730000000000006000830152602082019050919050565b6000613215602483613bb0565b91507f4552433732313a207472616e7366657220746f20746865207a65726f2061646460008301527f72657373000000000000000000000000000000000000000000000000000000006020830152604082019050919050565b600061327b601983613bb0565b91507f4552433732313a20617070726f766520746f2063616c6c6572000000000000006000830152602082019050919050565b60006132bb602c83613bb0565b91507f4552433732313a206f70657261746f7220717565727920666f72206e6f6e657860008301527f697374656e7420746f6b656e00000000000000000000000000000000000000006020830152604082019050919050565b6000613321603883613bb0565b91507f4552433732313a20617070726f76652063616c6c6572206973206e6f74206f7760008301527f6e6572206e6f7220617070726f76656420666f7220616c6c00000000000000006020830152604082019050919050565b6000613387602a83613bb0565b91507f4552433732313a2062616c616e636520717565727920666f7220746865207a6560008301527f726f2061646472657373000000000000000000000000000000000000000000006020830152604082019050919050565b60006133ed602983613bb0565b91507f4552433732313a206f776e657220717565727920666f72206e6f6e657869737460008301527f656e7420746f6b656e00000000000000000000000000000000000000000000006020830152604082019050919050565b6000613453602c83613bb0565b91507f4552433732313a20617070726f76656420717565727920666f72206e6f6e657860008301527f697374656e7420746f6b656e00000000000000000000000000000000000000006020830152604082019050919050565b60006134b9602983613bb0565b91507f4552433732313a207472616e73666572206f6620746f6b656e2074686174206960008301527f73206e6f74206f776e00000000000000000000000000000000000000000000006020830152604082019050919050565b600061351f602f83613bb0565b91507f4552433732314d657461646174613a2055524920717565727920666f72206e6f60008301527f6e6578697374656e7420746f6b656e00000000000000000000000000000000006020830152604082019050919050565b6000613585602183613bb0565b91507f4552433732313a20617070726f76616c20746f2063757272656e74206f776e6560008301527f72000000000000000000000000000000000000000000000000000000000000006020830152604082019050919050565b60006135eb603183613bb0565b91507f4552433732313a207472616e736665722063616c6c6572206973206e6f74206f60008301527f776e6572206e6f7220617070726f7665640000000000000000000000000000006020830152604082019050919050565b61364d81613d03565b82525050565b61365c81613d03565b82525050565b600061366e82856130f1565b915061367a82846130f1565b91508190509392505050565b600060208201905061369b6000830184612f55565b92915050565b60006020820190506136b66000830184612f46565b92915050565b60006080820190506136d16000830187612f55565b6136de6020830186612f55565b6136eb6040830185613653565b81810360608301526136fd8184613046565b905095945050505050565b600060208201905081810360008301526137228184612fd9565b905092915050565b600060208201905061373f6000830184613037565b92915050565b600060a08201905061375a6000830188613037565b6137676020830187613037565b6137746040830186613653565b818103606083015261378681856130b8565b9050818103608083015261379a81846130b8565b90509695505050505050565b600060208201905081810360008301526137c081846130b8565b905092915050565b600060208201905081810360008301526137e181613122565b9050919050565b6000602082019050818103600083015261380181613162565b9050919050565b60006020820190508181036000830152613821816131c8565b9050919050565b6000602082019050818103600083015261384181613208565b9050919050565b600060208201905081810360008301526138618161326e565b9050919050565b60006020820190508181036000830152613881816132ae565b9050919050565b600060208201905081810360008301526138a181613314565b9050919050565b600060208201905081810360008301526138c18161337a565b9050919050565b600060208201905081810360008301526138e1816133e0565b9050919050565b6000602082019050818103600083015261390181613446565b9050919050565b60006020820190508181036000830152613921816134ac565b9050919050565b6000602082019050818103600083015261394181613512565b9050919050565b6000602082019050818103600083015261396181613578565b9050919050565b60006020820190508181036000830152613981816135de565b9050919050565b600060208201905061399d6000830184613653565b92915050565b600060c0820190506139b86000830189613653565b81810360208301526139ca81886130b8565b905081810360408301526139de81876130b8565b90506139ed6060830186613653565b81810360808301526139ff8185612fd9565b905081810360a0830152613a138184612f64565b9050979650505050505050565b6000604082019050613a356000830185613653565b613a426020830184613653565b9392505050565b6000604051905081810181811067ffffffffffffffff82111715613a7057613a6f613e88565b5b8060405250919050565b600067ffffffffffffffff821115613a9557613a94613e88565b5b602082029050602081019050919050565b600067ffffffffffffffff821115613ac157613ac0613e88565b5b601f19601f8301169050602081019050919050565b600067ffffffffffffffff821115613af157613af0613e88565b5b601f19601f8301169050602081019050919050565b6000819050602082019050919050565b6000819050602082019050919050565b600081519050919050565b600081519050919050565b600081519050919050565b600081519050919050565b6000602082019050919050565b6000602082019050919050565b600082825260208201905092915050565b600082825260208201905092915050565b600082825260208201905092915050565b600082825260208201905092915050565b600082825260208201905092915050565b600081905092915050565b6000613bd782613d03565b9150613be283613d03565b9250827fffffffffffffffffffffffffffffffffffffffffffffffffffffffffffffffff03821115613c1757613c16613dfb565b5b828201905092915050565b6000613c2d82613d03565b9150613c3883613d03565b925082613c4857613c47613e2a565b5b828204905092915050565b6000613c5e82613d03565b9150613c6983613d03565b925082821015613c7c57613c7b613dfb565b5b828203905092915050565b6000613c9282613ce3565b9050919050565b6000613ca482613ce3565b9050919050565b60008115159050919050565b60007fffffffff0000000000000000000000000000000000000000000000000000000082169050919050565b600073ffffffffffffffffffffffffffffffffffffffff82169050919050565b6000819050919050565b82818337600083830152505050565b60005b83811015613d3a578082015181840152602081019050613d1f565b83811115613d49576000848401525b50505050565b60006002820490506001821680613d6757607f821691505b60208210811415613d7b57613d7a613e59565b5b50919050565b6000613d8c82613d03565b91507fffffffffffffffffffffffffffffffffffffffffffffffffffffffffffffffff821415613dbf57613dbe613dfb565b5b600182019050919050565b6000613dd582613d03565b9150613de083613d03565b925082613df057613def613e2a565b5b828206905092915050565b7f4e487b7100000000000000000000000000000000000000000000000000000000600052601160045260246000fd5b7f4e487b7100000000000000000000000000000000000000000000000000000000600052601260045260246000fd5b7f4e487b7100000000000000000000000000000000000000000000000000000000600052602260045260246000fd5b7f4e487b7100000000000000000000000000000000000000000000000000000000600052604160045260246000fd5b6000601f19601f8301169050919050565b613ed181613c87565b8114613edc57600080fd5b50565b613ee881613c99565b8114613ef357600080fd5b50565b613eff81613cab565b8114613f0a57600080fd5b50565b613f1681613cb7565b8114613f2157600080fd5b50565b613f2d81613d03565b8114613f3857600080fd5b5056fea2646970667358221220344a0f583985668ff9dd2c34e492c20576b76dbe9c9c2f403b3cf3024f390a7864736f6c63430008000033",
  "immutableReferences": {},
  "source": "// contracts/CloutMessages.sol\r\n// SPDX-License-Identifier: MIT\r\npragma solidity ^0.8.0;\r\n\r\nimport \"@openzeppelin/contracts/token/ERC721/ERC721.sol\";\r\n//import \"@openzeppelin/contracts/token/ERC721/extensions/ERC721URIStorage.sol\";\r\nimport \"@openzeppelin/contracts/utils/Counters.sol\";\r\nimport \"./CloutProfile.sol\";\r\n\r\n//import \"./TypedMessage.sol\";\r\n\r\ncontract CloutMessages is ERC721 {\r\n\r\n\t// Mapping from token ID to message Struct\r\n\tmapping (string => address ) public _messageTypes;\r\n\t// Mapping from token ID to owner address\r\n    mapping (uint256 => address payable) public owners;\r\n\t// Mapping from token ID to creator address\r\n    mapping (uint256 => address payable) public creators;\r\n\t// Mapping owner address to token count\r\n    mapping (address => uint256) public _balances;\r\n\t// Mapping owner address to message list\r\n\tmapping (address => uint256[] ) public profileMessages;\r\n\t\r\n\tCloutMsg[] public cloutMessages;\r\n\t\r\n    event MessagePublished(uint256 messageId);\r\n    event CommentPublished(uint256 messageId, uint256 replyToId);\r\n\t/**\r\n     * @dev Checks that message sender has a profile.\r\n     */\r\n\tmodifier onlyRegisteredProfile(address payable profileAddress){\r\n\t\tCloutProfile cp = CloutProfile(profileAddress);\r\n\t\taddress pa = cp.owner();\r\n\t\trequire( pa == msg.sender, \"Invalid Profile\" );\r\n\t\t_;\r\n\t}\r\n\t\r\n\t//default message interaction for all publications\r\n\tstring[] private _defaultMessageInteractions = [\"like\", \"tips\"];\r\n\t\r\n\tstruct CloutMsg {\r\n\t\tbool isEditable;\r\n\t\tbool isPrivate;\r\n\t\t\r\n\t\tuint256 replyToId;\r\n\t\t\r\n\t\tstring messageType;\r\n\t\tstring message;\r\n\t\t\r\n\t\tstring[] plugins;\r\n\t\tstring[] interactions;\r\n\t\tuint256[] comments;\r\n\t}\r\n\t\r\n\r\n\t\r\n\t\r\n\r\n    constructor() ERC721(\"CloutMessages\", \"CMsg\")\r\n\t{\r\n\t\t//reserved types\r\n\t\t//_messageTypes[ \"tweet\" ] = address()\r\n\t}\r\n\t\r\n\t\r\n\t\r\n\t//// Publication functions\r\n\t\r\n\t\r\n\t/**\r\n     * @dev Creates a new ERC721 Typed CloutMessage.\r\n     */\r\n\tfunction publishTypedMessage(address payable profileAddress, uint256 replyToId, string memory message, string memory messageType, string[] memory extra)\r\n\t\tonlyRegisteredProfile(profileAddress)\r\n\t\tpublic\r\n\t\treturns (uint256 newMessageId)\r\n\t{\r\n\t\tCloutMsg memory p;\r\n\t\tif ( replyToId > 0) p.replyToId = replyToId;\r\n\t\tp.messageType = messageType;\r\n\t\tp.message = message;\r\n\t\tp.interactions = _defaultMessageInteractions;\r\n\t\t\r\n\t\tuint256 messageId = cloutMessages.length;\r\n\t\tcloutMessages.push(p);\r\n\t\t\r\n\t\t//assign\r\n\t\t_balances[profileAddress] += 1;\r\n        owners[messageId] = profileAddress;\r\n        creators[messageId] = profileAddress;\r\n\t\t\r\n\t\tprofileMessages[profileAddress].push(messageId);\r\n\t\t\r\n\t\t//if replyToId then link comment in original message\r\n\t\tif ( replyToId > 0 ){\r\n\t\t\tcloutMessages[replyToId].comments.push(messageId);\r\n\t\t\temit CommentPublished(messageId, replyToId);\r\n\t\t}\r\n\t\telse \r\n\t\t\temit MessagePublished(messageId);\r\n\t\t\t\r\n\t\treturn messageId;\r\n\t}\r\n\t\r\n\t\r\n\t/**\r\n     * @dev Creates a new ERC721 default CloutMessage.\r\n     */\r\n\tfunction publishMessage(address payable profileAddress, uint256 replyToId, string memory message)\r\n\t\tpublic\r\n\t\treturns (uint256 messageId)\r\n\t{\r\n\t\tstring[] memory p;\r\n\t\treturn publishTypedMessage(profileAddress, replyToId, message, \"tweet\", p);\r\n\t}\r\n\t\r\n\t\r\n    /**\r\n     * @dev Retweet a post: add messageId to own message list independently of owner/creator.\r\n     */\r\n    function retweet(address payable profileAddress, uint256 messageId) \r\n\t\tonlyRegisteredProfile(profileAddress)\r\n\t\tpublic\r\n\t{\r\n\t\trequire ( profileAddress != owners[messageId], \"Can't retweet own messages\" );\r\n\t\tprofileMessages[profileAddress].push(messageId);\r\n\t}\r\n\t\r\n\t\r\n\t\r\n\t//// Retrieval functions\r\n\r\n\t/**\r\n     * @dev Returns the total amount of tokens stored by the contract.\r\n     */\r\n    function totalSupply() external view returns (uint256)\r\n\t{\r\n\t\treturn cloutMessages.length;\r\n\t}\r\n\r\n\t\r\n    /**\r\n     * @dev Returns a message by ID.\r\n     */\r\n    function getMessage(uint256 index) \r\n\t\texternal view \r\n\t\treturns (\r\n\t\t\tuint256 messageId, \r\n\t\t\tstring memory ownerName, \r\n\t\t\tstring memory messageURI, \r\n\t\t\tuint256 replyToId, \r\n\t\t\tuint256[] memory comments, \r\n\t\t\tstring[] memory interactions\r\n\t\t)\r\n\t{\r\n\t\tCloutMsg memory p = cloutMessages[index];\r\n\t\t\r\n\t\tCloutProfile cp = CloutProfile(owners[index]);\r\n\t\tstring memory profileName = cp.username();\r\n\t\t\r\n\t\treturn (index, profileName, p.message, p.replyToId, p.comments, p.interactions);\r\n\t}\r\n\t\r\n\t\r\n\t\r\n    /**\r\n     * @dev Returns a profile message list.\r\n     */\r\n    function getProfileMessages(address profile) \r\n\t\texternal view \r\n\t\treturns (uint256[] memory messages )\r\n\t{\r\n\t\treturn profileMessages[profile];\r\n\t}\r\n\t\r\n\r\n\t\r\n\r\n\r\n\t//// Message types management\r\n\t\r\n\t/**\r\n\t * @dev Update a message type target contract\r\n\t * For security, this has to be called by the old contract\r\n\t */\r\n\tfunction updateMessageTypeAddress(address _add)\r\n\t\tpublic\r\n\t{\r\n\t\t//require()\r\n\t}\r\n\r\n}",
  "sourcePath": "C:\\data\\projects\\the social cloutwork\\proofOfConcept\\contracts\\contracts\\CloutMessages.sol",
  "compiler": {
    "name": "solc",
    "version": "0.8.0+commit.c7dfd78e.Emscripten.clang"
  },
  "schemaVersion": "3.4.1",
  "updatedAt": "2021-07-16T07:14:58.929Z",
  "networkType": "ethereum",
  "devdoc": {
    "kind": "dev",
    "methods": {
      "approve(address,uint256)": {
        "details": "See {IERC721-approve}."
      },
      "balanceOf(address)": {
        "details": "See {IERC721-balanceOf}."
      },
      "getApproved(uint256)": {
        "details": "See {IERC721-getApproved}."
      },
      "getMessage(uint256)": {
        "details": "Returns a message by ID."
      },
      "getProfileMessages(address)": {
        "details": "Returns a profile message list."
      },
      "isApprovedForAll(address,address)": {
        "details": "See {IERC721-isApprovedForAll}."
      },
      "name()": {
        "details": "See {IERC721Metadata-name}."
      },
      "ownerOf(uint256)": {
        "details": "See {IERC721-ownerOf}."
      },
      "publishMessage(address,uint256,string)": {
        "details": "Creates a new ERC721 default CloutMessage."
      },
      "publishTypedMessage(address,uint256,string,string,string[])": {
        "details": "Creates a new ERC721 Typed CloutMessage."
      },
      "retweet(address,uint256)": {
        "details": "Retweet a post: add messageId to own message list independently of owner/creator."
      },
      "safeTransferFrom(address,address,uint256)": {
        "details": "See {IERC721-safeTransferFrom}."
      },
      "safeTransferFrom(address,address,uint256,bytes)": {
        "details": "See {IERC721-safeTransferFrom}."
      },
      "setApprovalForAll(address,bool)": {
        "details": "See {IERC721-setApprovalForAll}."
      },
      "supportsInterface(bytes4)": {
        "details": "See {IERC165-supportsInterface}."
      },
      "symbol()": {
        "details": "See {IERC721Metadata-symbol}."
      },
      "tokenURI(uint256)": {
        "details": "See {IERC721Metadata-tokenURI}."
      },
      "totalSupply()": {
        "details": "Returns the total amount of tokens stored by the contract."
      },
      "transferFrom(address,address,uint256)": {
        "details": "See {IERC721-transferFrom}."
      },
      "updateMessageTypeAddress(address)": {
        "details": "Update a message type target contract For security, this has to be called by the old contract"
      }
    },
    "version": 1
  },
  "userdoc": {
    "kind": "user",
    "methods": {},
    "version": 1
  }
}